:100000000C946F000C9497000C9497000C9497003C
:100010000C9497000C9497000C9497000C94970004
:100020000C9497000C9497000C9497000C949700F4
:100030000C9497000C9497000C9497000C949700E4
:100040000C948C020C9497000C94FC020C94D60235
:100050000C9497000C9497000C9497000C949700C4
:100060000C942E030C949700084AD73B3BCE016EAC
:1000700084BCBFFDC12F3D6C74319ABD56833DDAFF
:100080003D00C77F11BED9E4BB4C3E916BAAAABE0E
:10009000000000803F0000000000250028002B0029
:1000A000040404040404040402020202020203031E
:1000B0000303030301020408102040800102040826
:1000C00010200102040810200000000800020100B6
:1000D000000304070000000000000000240D1124AC
:1000E0001FBECFEFD8E0DEBFCDBF11E0A0E0B1E092
:1000F000E2E6F1E202C005900D92A03DB107D9F70A
:1001000023E0A0EDB1E001C01D92A23AB207E1F7F1
:1001100010E0CFE6D0E004C02197FE010E94A410B9
:10012000CE36D107C9F70E94800A0C94AF100C9408
:10013000000008950895CF92DF92EF92FF920F93FF
:100140001F93CF93DF936C017A018B01C0E0D0E065
:10015000CE15DF0581F0D8016D918D01D601ED91AD
:10016000FC910190F081E02DC6010995892B11F0D9
:100170002196EECF7E01C701DF91CF911F910F91A4
:10018000FF90EF90DF90CF900895FC01538D448D48
:10019000252F30E0842F90E0821B930B541710F032
:1001A000CF96089501970895FC01918D828D98173F
:1001B00061F0828DDF01A80FB11D5D968C91928D4B
:1001C0009F5F9F73928F90E008958FEF9FEF089548
:1001D000FC01918D828D981731F0828DE80FF11D11
:1001E000858D90E008958FEF9FEF0895FC01918D2C
:1001F000228D892F90E0805C9F4F821B91098F7325
:10020000992708958DE892E00E94F60021E0892B5D
:1002100009F420E0822F0895FC01848DDF01A80FEE
:10022000B11DA35ABF4F2C91848D90E001968F731E
:100230009927848FA689B7892C93A089B1898C913D
:10024000837080648C93938D848D981306C002888C
:10025000F389E02D80818F7D80830895EF92FF9256
:100260000F931F93CF93DF93EC0181E0888F9B8DD9
:100270008C8D981305C0E889F989808185FD26C099
:10028000F62E0B8D10E00F5F1F4F0F731127E02E1E
:100290008C8DE8120CC00FB607FCFACFE889F989FB
:1002A000808185FFF5CFCE010E940C01F1CF8B8DAF
:1002B000FE01E80FF11DE35AFF4FF0829FB7F8945B
:1002C0000B8FEA89FB89808180620AC09FB7F8940E
:1002D000EE89FF896083E889F98980818370806471
:1002E00080839FBF81E090E0DF91CF911F910F91BC
:1002F000FF90EF900895CF93DF93EC01888D8823D2
:10030000C9F0EA89FB89808185FD05C0A889B98982
:100310008C9186FD0FC00FB607FCF5CF808185FF5D
:10032000F2CFA889B9898C9185FFEDCFCE010E94CB
:100330000C01E7CFDF91CF91089580E090E0892B09
:1003400029F00E94020181110C940000089585EDAE
:100350008093BC008091BC0084FDFCCF10928C0285
:10036000089540911002262F30E0240F311D2132D4
:100370003105DCF420918C022430C9F4FC0180E0CA
:1003800090E0861758F4309110022191DC01A051C1
:10039000BE4FA30FB11D2C930196F3CF8091100295
:1003A000680F6093100280E0089581E0089582E074
:1003B00008950895E091410280914002E81730F4D9
:1003C000F0E0EA5BFD4F808190E008958FEF9FEFB2
:1003D00008959091410280914002981750F4E92FBE
:1003E000F0E0EA5BFD4F208130E09F5F9093410297
:1003F00002C02FEF3FEFC90108958091400290E0C5
:1004000020914102821B91090895CF92DF92EF92D1
:10041000FF920F931F93CF93DF937C01CB018A014F
:1004200020914502222389F0EB016B01C40ED51EF9
:10043000CC15DD0569F06991D701ED91FC91019032
:10044000F081E02DC7010995F3CF642F0E94B1011F
:10045000C801DF91CF911F910F91FF90EF90DF9036
:10046000CF900895CF93DF931F92CDB7DEB7698306
:10047000209145022223D1F020914202203240F007
:1004800021E030E0FC013383228380E090E015C05E
:1004900080914302E82FF0E0E053FE4F9981908372
:1004A0008F5F809343028093420205C061E0CE01DA
:1004B00001960E94B10181E090E00F90DF91CF9111
:1004C0000895089580E090E008950E94AA103FB733
:1004D000F8948091380290913902A0913A02B0913B
:1004E0003B0226B5A89B05C02F3F19F00196A11D20
:1004F000B11D3FBFBA2FA92F982F8827820F911DBA
:10050000A11DB11DBC01CD0142E0660F771F881F00
:10051000991F4A95D1F708951F920F920FB60F9227
:1005200011242F933F938F939F93AF93BF93809109
:100530003C0290913D02A0913E02B0913F02309169
:10054000370223E0230F2D3720F40196A11DB11DA2
:1005500005C026E8230F0296A11DB11D2093370286
:1005600080933C0290933D02A0933E02B0933F02E1
:100570008091380290913902A0913A02B0913B02E9
:100580000196A11DB11D8093380290933902A0936A
:100590003A02B0933B02BF91AF919F918F913F91EF
:1005A0002F910F900FBE0F901F9018951F920F92D2
:1005B0000FB60F9211242F933F934F935F936F9336
:1005C0007F938F939F93AF93BF93EF93FF938DE8A8
:1005D00092E00E940C01FF91EF91BF91AF919F912A
:1005E0008F917F916F915F914F913F912F910F90DC
:1005F0000FBE0F901F9018951F920F920FB60F927B
:1006000011242F938F939F93EF93FF93E0919D027B
:10061000F0919E028081E091A302F091A40282FDFC
:1006200012C090818091A6028F5F8F732091A702E4
:10063000821751F0E091A602F0E0E357FD4F958F4D
:100640008093A60201C08081FF91EF919F918F91CD
:100650002F910F900FBE0F901F9018951F920F9221
:100660000FB60F9211242F933F934F935F936F9385
:100670007F938F939F93AF93BF93EF93FF9380915B
:10068000B900887F803609F49CC068F5883209F487
:100690005BC090F4803109F454C038F4882309F425
:1006A000F6C0883009F44DC0F6C0883109F44CC05A
:1006B000803209F45DC0EFC0803409F468C048F4AA
:1006C000803309F455C0883309F0E5C080938A026D
:1006D000D8C0803509F44FC0883509F45DC088342E
:1006E00009F0D9C0D6C0883909F4C7C0A8F4883742
:1006F00009F467C038F4883609F463C0803709F418
:1007000060C0C9C0883809F4B8C0803909F45FC036
:10071000803809F0C0C05BC0803B09F486C038F463
:10072000803A09F466C0883A09F47FC0B4C0803CBE
:1007300009F4A7C0883C09F4A4C0883B09F48AC026
:10074000AAC08091870210C090918902809188028E
:10075000981770F5E091890281E08E0F80938902ED
:10076000F0E0EA59FD4F80818093BB0085EC86C0A4
:1007700080938A028EC0E091890281E08E0F80937F
:1007800089028091BB00F0E0EA59FD4F808390918F
:100790008902809188026EC0E091890281E08E0F0B
:1007A000809389028091BB00F0E0EA59FD4F80837D
:1007B00080918B0281116DC081E08093860284EA72
:1007C00061C083E080938C0210923202CFCF80917F
:1007D0003202803208F051C0E091320281E08E0F87
:1007E000809332028091BB00F0E0EE5EFD4F80838B
:1007F000BDCF85EC8093BC0010928C0280913202B8
:10080000803230F4E0913202F0E0EE5EFD4F108273
:100810006091320270E0E0913302F091340282E1A3
:1008200092E009951092320236C084E080938C02E7
:100830001092110210921002E0913502F0913602EE
:10084000099580911002811105C081E0809310020A
:100850001092F001E091110281E08E0F809311025D
:10086000F0E0E051FE4F80818093BB009091110237
:1008700080911002981708F479CF85E88093BC0026
:100880000AC085EC8093BC0010928C0204C01092C8
:100890008A020E94A701FF91EF91BF91AF919F91B2
:1008A0008F917F916F915F914F913F912F910F9019
:1008B0000FBE0F901F90189530914202313208F010
:1008C0004AC080918C028111FCCF9091440222E0B9
:1008D00020938C0260938B022FEF20938A02109258
:1008E000890230938802E0EDF1E0A6E6B2E020E074
:1008F000321721F041914D932F5FFACF109287026A
:1009000020918702990F922B9093870290918602F3
:10091000913061F410928602909187029093BB000F
:100920009091BC0093FDF8CF95EC01C095EE9093AB
:10093000BC0090918C029230E1F390918A029F3F2B
:1009400079F080918A02803241F080918A0280336E
:1009500031F084E005C081E003C082E001C083E0A3
:10096000109243021092420210924502089500979D
:1009700069F0FC0101900020E9F73197AF01481BB5
:10098000590BBC018DE892E00C949B0080E090E054
:1009900008950C94B704CF93DF930E94B704EC0141
:1009A00084E291E00E94B7048C0F9D1FDF91CF91EC
:1009B00008952F923F924F925F926F927F928F9203
:1009C0009F92AF92BF92CF92DF92EF92FF920F93DE
:1009D0001F93CF93DF93CDB7DEB7A4970FB6F894EC
:1009E000DEBF0FBECDBF4B015C01F42E9B01AC01FD
:1009F0000E945510882319F084EC91E027C024014F
:100A00003501E89477F82FEF3FEF4FE75FE7C30139
:100A1000B2010E94551081110DC02FEF3FEF4FE73B
:100A20005FE7C301B2010E94580E18161CF488EC4F
:100A300091E00CC02FEF3FEF4FE75FE4C501B40139
:100A40000E94D70F18162CF48CEC91E00E94B7048A
:100A5000B8C02FEF3FEF4FE75FECC501B4010E9434
:100A6000580E87FDF1CF20E030E0A901C501B401A7
:100A70000E94580E87FF0BC06DE28DE892E00E9445
:100A80002E013C01B7FAB094B7F8B09402C0612CC3
:100A9000712C10E060E070E080E09FE3F11641F01F
:100AA00020E030E040E251E40E945D0E1F5FF6CF8F
:100AB000A50194010E947A0D4B015C010E94CF0EAA
:100AC0006AA3C72ED82EE92E19A2262F372F482F1A
:100AD000592F8E010F5D1F4F0BA31CA39AE0292EE7
:100AE000312C412C512CCA01B901A20191010E9463
:100AF0006E10605DF80162938F012115310541058B
:100B0000510589F7CF010E94B7048301080F191F0F
:100B1000FF2009F455C06AA17C2D8D2D9E2D0E94C9
:100B2000FE0E9B01AC01C501B4010E94790D4B0181
:100B30005C016EE28DE892E00E942E01080F191F01
:100B40008AE0282E312C412C512C20E030E040E26C
:100B500051E4C501B4010E94E40F4B015C010E9405
:100B6000CF0E9B0140E050E019A2CBA0DCA0762E76
:100B70003AA3642EE52ECA01B901A20191010E9497
:100B80006E10605DF60162936F012115310541051C
:100B9000510589F7CF010E94B704080F191F672D6F
:100BA0007AA1862D9E2D0E94FE0E9B01AC01C501EF
:100BB000B4010E94790D4B015C01FA94F110C5CF8C
:100BC000C801A4960FB6F894DEBF0FBECDBFDF916B
:100BD000CF911F910F91FF90EF90DF90CF90BF903A
:100BE000AF909F908F907F906F905F904F903F90CD
:100BF0002F900895CF93DF9342E00E94D904EC0137
:100C000084E291E00E94B7048C0F9D1FDF91CF9189
:100C1000089590918C029111FCCF91E090938C02F9
:100C200090938B022FEF20938A0210928902260F55
:100C3000209388029093870290918702880F892BD6
:100C40008093870280918602813061F4109286023F
:100C5000809187028093BB008091BC0083FDF8CF18
:100C600085EC01C085EE8093BC0080918C028130C0
:100C7000E1F380918902861710F460918902A6E65B
:100C8000B2E0E6E4F2E080E0861721F09D919193D6
:100C90008F5FFACF08952F923F924F925F926F929B
:100CA0007F928F929F92AF92BF92CF92DF92EF92FC
:100CB000FF92CF93DF93CDB7DEB728970FB6F894A6
:100CC000DEBF0FBECDBF81E08093450288E68093F2
:100CD0004402109243021092420280913603909196
:100CE0003703DC01ED91FC910190F081E02D6BE385
:100CF000099560E080913603909137030E945C046F
:100D00006EE088E60E94090610924102809340023C
:100D10008091360390913703DC01ED91FC910284C0
:100D2000F385E02D0995F82E8091360390913703D5
:100D3000DC01ED91FC910284F385E02D099520E022
:100D400030E03F2D822B932B90933903809338030F
:100D50008091360390913703DC01ED91FC91028480
:100D6000F385E02D0995F82E809136039091370395
:100D7000DC01ED91FC910284F385E02D099520E0E2
:100D800030E03F2D822B932B90933B0380933A03CB
:100D90008091360390913703DC01ED91FC91028440
:100DA000F385E02D0995F82E809136039091370355
:100DB000DC01ED91FC910284F385E02D099520E0A2
:100DC00030E03F2D822B932B90933D0380933C0387
:100DD0008091360390913703DC01ED91FC91028400
:100DE000F385E02D0995F82E809136039091370315
:100DF000DC01ED91FC910284F385E02D099520E062
:100E000030E03F2D822B932B90933F0380933E0342
:100E10008091360390913703DC01ED91FC910284BF
:100E2000F385E02D0995F82E8091360390913703D4
:100E3000DC01ED91FC910284F385E02D099520E021
:100E400030E03F2D822B932B9093410380934003FE
:100E50008091360390913703DC01ED91FC9102847F
:100E6000F385E02D0995F82E809136039091370394
:100E7000DC01ED91FC910284F385E02D099520E0E1
:100E800030E03F2D822B932B9093430380934203BA
:100E90008091360390913703DC01ED91FC9102843F
:100EA000F385E02D0995F82E809136039091370354
:100EB000DC01ED91FC910284F385E02D099560E061
:100EC00070E07F2D3B01682A792A70924503609279
:100ED000440360913E0370913F03072E000C880B82
:100EE000990B0E94000F20E030EF41E456E40E948D
:100EF0007A0D20E030E04AEA53E40E945D0E6093F0
:100F0000520370935303809354039093550360915D
:100F1000380370913903072E000C880B990B0E943F
:100F2000000F20E030E040E858E30E94E40F4B015E
:100F30005C0160935603709357038093580390931A
:100F4000590360913A0370913B03072E000C880B04
:100F5000990B0E94000F20E030E040E858E30E9427
:100F6000E40F6B017C0160935A0370935B038093E1
:100F70005C0390935D0360913C0370913D03072EE9
:100F8000000C880B990B0E94000F20E030E040E835
:100F900058E30E94E40F1B012C0160935E037093E1
:100FA0005F03809360039093610320E030E0A90128
:100FB000C501B4010E94D70FA501940118160CF0C9
:100FC0005058C201B1010E947A0D9B01AC01C701CA
:100FD000B6010E94F90D20E030E044EB53E40E949A
:100FE000E40F20E030E040E05FE30E94E40F2BEDEF
:100FF0003FE049E450E40E945D0E60937A037093F1
:101000007B0380937C0390937D0320E030E0A90173
:10101000C701B6010E94D70F181624F0F7FAF09412
:10102000F7F8F094A7019601C201B1010E947A0D70
:101030009B01AC01C501B4010E94F90D20E030E034
:1010400044EB53E40E94E40F20E030E040E05FEB2B
:101050000E94E40F2BED3FE049E450E40E945D0E56
:1010600060937E0370937F0380938003909381034A
:101070006091420370914303072E000C880B990B7B
:101080000E94000F20E030E043E852E40E945D0E31
:101090006B017C016091400370914103072E000CAD
:1010A000880B990B0E94000F20E030E043E852E4E7
:1010B0000E945D0E20914603309147034091480302
:1010C000509149030E94790D60936203709363030A
:1010D000809364039093650320914A0330914B03FE
:1010E00040914C0350914D03C701B6010E94790D08
:1010F000609366037093670380936803909369031A
:10110000B301770C880B990B0E94000F20E030E0B0
:1011100043E852E40E945D0E20914E0330914F034C
:1011200040915003509151030E94790D60936A03DE
:1011300070936B0380936C0390936D032FB7F894B7
:1011400080913C0290913D02A0913E02B0913F02FD
:101150002FBFC0909603D0909703E0909803F09033
:101160009903BC01CD016C197D098E099F090E946C
:10117000FE0E2FE632E143E85AE30E94E40F6B01D2
:101180007C016093920370939303809394039093F4
:101190009503209162033091630340916403509161
:1011A00065030E94E40F2B013C019B01AC0160919F
:1011B0006E0370916F0380917003909171030E9490
:1011C0007A0D60936E0370936F0380937003909316
:1011D0007103209166033091670340916803509139
:1011E0006903C701B6010E94E40F4B015C019B013A
:1011F000AC016091720370917303809174039091BC
:1012000075030E947A0D6093720370937303809349
:1012100074039093750320916A0330916B0340919E
:101220006C0350916D03C701B6010E94E40F209139
:1012300076033091770340917803509179030E94AF
:101240007A0D6D837E838F83988760937603709386
:1012500077038093780390937903C0909E03D09096
:101260009F03E090A003F090A10380919A039091D6
:101270009B03A0919C03B0919D0389839A83AB83C8
:10128000BC8320918603309187034091880350915D
:101290008903C301B2010E947A0DA70196010E9441
:1012A000E40F2B013C0120917A0330917B034091A4
:1012B0007C0350917D0369817A818B819C810E949E
:1012C000E40F9B01AC01C301B2010E947A0D60934F
:1012D00086037093870380938803909389032091FA
:1012E0008A0330918B0340918C0350918D03C5018B
:1012F000B4010E947A0DA70196010E94E40F6B01D0
:101300007C0120917E0330917F03409180035091B6
:10131000810369817A818B819C810E94E40F9B010A
:10132000AC01C701B6010E947A0D60938A037093E5
:101330008B0380938C0390938D038D819E81AF816D
:10134000B88580938E0390938F03A0939003B093FE
:1013500091032FB7F89480913C0290913D02A091A7
:101360003E02B0913F022FBF809396039093970364
:10137000A0939803B093990328960FB6F894DEBF14
:101380000FBECDBFDF91CF91FF90EF90DF90CF9058
:10139000BF90AF909F908F907F906F905F904F9095
:1013A0003F902F9008951F93CF93DF93162F91E0D6
:1013B0009093450298E69093440210924302109253
:1013C0004202C6E3D3E0A881B981ED91FC91119767
:1013D0000190F081E02D682FCD01099588819981D8
:1013E000DC01ED91FC910190F081E02D612F0995D8
:1013F00061E088819981DF91CF911F910C945C0409
:1014000090E0FC01E853FF4F2491FC01EC54FF4FA6
:101410003491FC01E056FF4FE491EE23B1F1222319
:1014200039F1233091F038F42130A9F0223001F560
:1014300084B58F7D12C0273091F02830A1F0243080
:10144000B9F4809180008F7D03C0809180008F77F8
:10145000809380000DC084B58F7784BD09C08091D2
:10146000B0008F7703C08091B0008F7D8093B00073
:10147000F0E0EE0FFF1FEA56FF4FA591B4918FB732
:10148000F894EC91E32BEC938FBF08958F929F9289
:10149000AF92BF92CF92DF92EF92FF926B017C01ED
:1014A0000E9467024B015C01C114D104E104F10404
:1014B000F1F00E946702DC01CB0188199909AA09A1
:1014C000BB09883E9340A105B10570F321E0C21A23
:1014D000D108E108F10888EE880E83E0981EA11C6F
:1014E000B11CC114D104E104F10419F7DDCFFF9060
:1014F000EF90DF90CF90BF90AF909F908F90089526
:10150000CF93DF93CDB7DEB72B970FB6F894DEBF3E
:101510000FBECDBF789484B5826084BD84B58160F0
:1015200084BD85B5826085BD85B5816085BD8091AE
:101530006E00816080936E00109281008091810026
:10154000826080938100809181008160809381001E
:10155000809180008160809380008091B1008460E0
:101560008093B1008091B00081608093B000809141
:101570007A00846080937A0080917A008260809300
:101580007A0080917A00816080937A0080917A005D
:10159000806880937A001092C100E0919D02F091E2
:1015A0009E0282E08083E0919902F0919A0210827B
:1015B000E0919B02F0919C028FEC80831092A50237
:1015C000E091A102F091A20286E08083E0919F0267
:1015D000F091A002808180618083E0919F02F09170
:1015E000A002808188608083E0919F02F091A00238
:1015F000808180688083E0919F02F091A0028081C9
:101600008F7D80831092410210924002109243021B
:101610001092420210928C0281E080938B02109211
:10162000860282E10E94000A83E10E94000A809102
:10163000B9008E7F8093B9008091B9008D7F80932F
:10164000B90088E48093B80085E48093BC0089E900
:1016500090E090933602809335028AE990E090936F
:101660003402809333028CE08093B80060E089E11B
:101670000E94D30960E08AE10E94D30968E08BE10F
:101680000E94D30960E08CE10E94D30961E08BE6FF
:101690000E94D3090E944B0610926E0310926F03B2
:1016A00010927003109271031092720310927303E0
:1016B000109274031092750380917A0390917B03CA
:1016C000A0917C03B0917D03809386039093870360
:1016D000A0938803B093890380917E0390917F0348
:1016E000A0918003B091810380938A0390938B0330
:1016F000A0938C03B0938D032FB7F89480913C0294
:1017000090913D02A0913E02B0913F022FBF809385
:10171000960390939703A0939803B093990368EE70
:1017200073E080E090E00E94460A84E291E00E942B
:10173000B70487E291E00E94CB0480E591E00E942B
:10174000CB0489E691E00E94C904C12CD12C76011A
:10175000460157012601370100E010E0C80168EE9C
:1017600073E00E945A10892B21F48DE791E00E94CA
:10177000C90421E02093450238E6309344021092D8
:101780004302109242028091360390913703DC01AC
:10179000ED91FC910190F081E02D63E4099560E00A
:1017A00080913603909137030E945C0466E088E6DE
:1017B0000E940906109241028093400280913603F4
:1017C00090913703DC01ED91FC910284F385E02DCB
:1017D00009958F838091360390913703DC01ED9159
:1017E000FC910284F385E02D0995BF81BA831982AB
:1017F00029813A81282B392B3B872A878091360310
:1018000090913703DC01ED91FC910284F385E02D8A
:101810000995382E8091360390913703DC01ED91C4
:10182000FC910284F385E02D09953C821B822B817B
:101830003C81282B392B38872F8380913603909158
:101840003703DC01ED91FC910284F385E02D0995CD
:1018500089878091360390913703DC01ED91FC91EB
:101860000284F385E02D09951C012A853B85B90189
:10187000330F880B990B0E94000F20E030E043E803
:1018800052E40E945D0E9B01AC01C301B2010E94B3
:101890007A0D2B013C01AF81B885BD01BB0F880BD0
:1018A000990B0E94000F20E030E043E852E40E94D0
:1018B0005D0E9B01AC01C501B4010E947A0D4B0184
:1018C0005C01B985BE831D826D817E816229732989
:1018D000072E000C880B990B0E94000F20E030E0CF
:1018E00043E852E40E945D0E9B01AC01C701B601C2
:1018F0000E947A0D6B017C010F5F1F4F083B2BE0AC
:10190000120709F02BCF20E030E84BE355E4C30188
:10191000B2010E945D0E609346037093470380936B
:1019200048039093490320E030E84BE355E4C501B8
:10193000B4010E945D0E60934A0370934B03809341
:101940004C0390934D0320E030E84BE355E4C7018E
:10195000B6010E945D0E60934E0370934F03809317
:1019600050039093510384E291E00E94B7048FE703
:1019700091E00E94CB048DEA91E00E94C90460913D
:1019800046037091470380914803909149030E9458
:10199000FA0586EB91E00E94C90460914A037091B8
:1019A0004B0380914C0390914D030E94FA058FEBFD
:1019B00091E00E94C90460914E0370914F038091A1
:1019C0005003909151030E94FA0587E891E00E942C
:1019D000CB0487E291E00E94C90468EB7BE080E0E1
:1019E00090E00E94460A0E944B068AEA91E00E941B
:1019F000C9046091560370915703809158039091E8
:101A0000590342E00E94D90482EB91E00E94C9048C
:101A100060915A0370915B0380915C0390915D0328
:101A200042E00E94D9048BEB91E00E94C9046091CE
:101A30005E0370915F0380916003909161030E9447
:101A4000FA050E949D01CFCFEDE8F2E013821282E9
:101A500088EE93E0A0E0B0E084839583A683B7830B
:101A600024E031E03183208325EC30E03587248782
:101A700024EC30E03787268720EC30E0318B208B58
:101A800021EC30E0338B228B22EC30E0358B248B41
:101A900026EC30E0378B268B118E128E138E148E2F
:101AA000EAE2F3E01382128284839583A683B783EC
:101AB00086E191E091838083F0933703E0933603CE
:101AC0008AE097EDA3EABCE380939A0390939B038B
:101AD000A0939C03B0939D0388E491EEAAE7BFE333
:101AE00080939E0390939F03A093A003B093A103C0
:101AF00008955058BB27AA270E94910D0C949D0F62
:101B00000E948F0F38F00E94960F20F039F49F3F0B
:101B100019F426F40C94650F0EF4E095E7FB0C9491
:101B20005F0FE92F0E94AE0F58F3BA1762077307D1
:101B30008407950720F079F4A6F50C94D00F0EF4E5
:101B4000E0950B2EBA2FA02D0B01B90190010C01CD
:101B5000CA01A0011124FF27591B99F0593F50F4E5
:101B6000503E68F11A16F040A22F232F342F44273D
:101B7000585FF3CF469537952795A795F040539535
:101B8000C9F77EF41F16BA0B620B730B840BBAF005
:101B90009150A1F0FF0FBB1F661F771F881FC2F770
:101BA0000EC0BA0F621F731F841F48F48795779584
:101BB0006795B795F7959E3F08F0B0CF9395880F3E
:101BC00008F09927EE0F9795879508950E948F0F3B
:101BD00060F080E891E009F49EEF0E94960F28F0F3
:101BE00040E851E071F45EEF0CC00C94650F0C946A
:101BF000D00FE92FE0780E94AE0F40F3092E052A9E
:101C0000B1F3261737074807590738F00E2E07F8A3
:101C1000E02569F0E025E0640AC0EF6307F800946E
:101C200007FADB01B9019D01DC01CA01AD01EF93A7
:101C30000E94740E0E949D0F0E94290E5F915523F1
:101C400039F02BED3FE049E450FD49EC0C947A0D5E
:101C50000895DF93DD27B92FBF7740E85FE31616BD
:101C6000170648075B0718F4D92F0E94DC0F9F93D3
:101C70008F937F936F930E945110E8E6F0E00E94EB
:101C8000680F0E949D0F2F913F914F915F910E948D
:101C9000F70FDD2351F09058A2EA2AED3FE049EC1E
:101CA0005FE3D0785D270E94910DDF910C949D0F2A
:101CB0000E943B0F08F481E008950E94710E0C947D
:101CC0009D0F0E94960F58F00E948F0F40F029F44C
:101CD0005F3F29F00C945F0F51110C94D10F0C94BD
:101CE000650F0E94AE0F68F39923B1F3552391F36A
:101CF000951B550BBB27AA2762177307840738F07B
:101D00009F5F5F4F220F331F441FAA1FA9F335D0D7
:101D10000E2E3AF0E0E832D091505040E695001C8B
:101D2000CAF72BD0FE2F29D0660F771F881FBB1F45
:101D3000261737074807AB07B0E809F0BB0B802D23
:101D4000BF01FF2793585F4F3AF09E3F510578F04F
:101D50000C945F0F0C94D10F5F3FE4F3983ED4F3E3
:101D6000869577956795B795F7959F5FC9F7880F23
:101D7000911D9695879597F90895E1E0660F771F75
:101D8000881FBB1F621773078407BA0720F0621B06
:101D9000730B840BBA0BEE1F88F7E09508950E9431
:101DA000B60F88F09F5798F0B92F9927B751B0F028
:101DB000E1F0660F771F881F991F1AF0BA95C9F7CF
:101DC00014C0B13091F00E94D00FB1E008950C948E
:101DD000D00F672F782F8827B85F39F0B93FCCF341
:101DE000869577956795B395D9F73EF4909580954C
:101DF000709561957F4F8F4F9F4F0895E89409C06C
:101E000097FB3EF490958095709561957F4F8F4F2D
:101E10009F4F9923A9F0F92F96E9BB279395F69543
:101E2000879577956795B795F111F8CFFAF4BB0FC1
:101E300011F460FF1BC06F5F7F4F8F4F9F4F16C025
:101E4000882311F096E911C0772321F09EE8872FAF
:101E5000762F05C0662371F096E8862F70E060E06B
:101E60002AF09A95660F771F881FDAF7880F9695E4
:101E7000879597F90895990F0008550FAA0BE0E888
:101E8000FEEF16161706E807F907C0F0121613063C
:101E9000E407F50798F0621B730B840B950B39F47C
:101EA0000A2661F0232B242B252B21F408950A26E2
:101EB00009F4A140A6958FEF811D811D089597F922
:101EC0009F6780E870E060E008959FEF80EC0895E0
:101ED000DF93CF931F930F93FF92EF92DF927B01DB
:101EE0008C01689406C0DA2EEF010E94F70FFE0104
:101EF000E894A5912591359145915591A6F3EF016F
:101F00000E94910DFE019701A801DA9469F7DF9014
:101F1000EF90FF900F911F91CF91DF9108950024D2
:101F20000A941616170618060906089500240A943E
:101F300012161306140605060895092E0394000CC4
:101F400011F4882352F0BB0F40F4BF2B11F460FF53
:101F500004C06F5F7F4F8F4F9F4F089557FD90587C
:101F6000440F551F59F05F3F71F04795880F97FB5D
:101F7000991F61F09F3F79F0879508951216130617
:101F80001406551FF2CF4695F1DF08C01616170646
:101F90001806991FF1CF869571056105089408957B
:101FA000E894BB2766277727CB0197F908950E940D
:101FB0003B0F08F48FEF08959B01AC0160E070E0E7
:101FC00080E89FE30C945D0E0E94F70F0C949D0F28
:101FD0000E948F0F38F00E94960F20F0952311F089
:101FE0000C945F0F0C94650F11240C94D10F0E9478
:101FF000AE0F70F3959FC1F3950F50E0551F629F90
:10200000F001729FBB27F00DB11D639FAA27F00D51
:10201000B11DAA1F649F6627B00DA11D661F829F78
:102020002227B00DA11D621F739FB00DA11D621F5D
:10203000839FA00D611D221F749F3327A00D611D7A
:10204000231F849F600D211D822F762F6A2F11245C
:102050009F5750409AF0F1F088234AF0EE0FFF1F8F
:10206000BB1F661F771F881F91505040A9F79E3FE6
:10207000510580F00C945F0F0C94D10F5F3FE4F397
:10208000983ED4F3869577956795B795F795E7953C
:102090009F5FC1F7FE2B880F911D9695879597F945
:1020A00008959B01AC010C94E40F0E943B0F880B38
:1020B000990B089597FB072E16F4009407D077FD2F
:1020C00009D00E94901007FC05D03EF490958195B0
:1020D0009F4F0895709561957F4F0895A1E21A2E44
:1020E000AA1BBB1BFD010DC0AA1FBB1FEE1FFF1FBC
:1020F000A217B307E407F50720F0A21BB30BE40B0C
:10210000F50B661F771F881F991F1A9469F7609552
:102110007095809590959B01AC01BD01CF0108950C
:10212000AA1BBB1B51E107C0AA1FBB1FA617B707FD
:1021300010F0A61BB70B881F991F5A95A9F7809519
:102140009095BC01CD010895EE0FFF1F0590F4910D
:10215000E02D099481E090E0F8940C94AF10F8948D
:02216000FFCFAF
:10216200000000002E019B00C5007B01F600D40098
:10217200E80000000000320205026202D901FD01FE
:10218200E901DA010D0A003D3D3D3D3D3D3D3D3D4C
:102192003D3D3D3D3D3D3D3D3D3D3D3D3D3D3D3D6D
:1021A2003D3D3D3D3D3D3D3D3D3D3D3D3D3D3D009A
:1021B20043616C63756C6174696E67206779726FD5
:1021C200206F66667365747300444F204E4F54202F
:1021D2004D4F5645204D505536303530002E004477
:1021E2006F6E652121210050726F6772616D2077D9
:1021F200696C6C20737461727420616674657220FC
:1022020033207365636F6E64730061636358203AB1
:1022120020000961636359203A2000096163635A0F
:10222200203A20006E616E00696E66006F7666006D
:00000001FF
