:100000000C945B000C9483000C9483000C9483008C
:100010000C9483000C9483000C9483000C94830054
:100020000C9483000C9483000C9483000C94830044
:100030000C9483000C9483000C9483000C94830034
:100040000C9483000C9483000C9483000C94830024
:100050000C9483000C9483000C9483000C94830014
:100060000C9483000C9483000C9483000C94830004
:100070000C9483000C9483000C9483000C948300F4
:100080000C9483000C9483000C9483000C948300E4
:100090000C9483000C9483000C9483000C948300D4
:1000A0000C9483000C9483000C9483000C948300C4
:1000B0000C9483000E0211241FBECFEFD8E0DEBFE8
:1000C000CDBF11E0A0E0B1E0E2E1F5E002C00590B3
:1000D0000D92AC30B107D9F721E0ACE0B1E001C03E
:1000E0001D92AE31B207E1F710E0CBE5D0E004C0DD
:1000F0002197FE010E948102CA35D107C9F70E94EB
:1001000009020C9487020C94000060E875E28CE010
:1001100091E00E9448015C9A5C98089581E0809388
:1001200000018CE091E00E94E701882309F444C0BB
:100130008CE091E00E94F8018823F1F18CE091E0DD
:100140000E94A701682F8CE091E00E94AD0188EC2D
:1001500090E020910001222371F15C9A843F21E01C
:10016000920709F446C0883E33E0930709F44AC079
:10017000883C910549F44FEF23EC39E04150204091
:100180003040E1F700C000005C98843F41E09407F4
:1001900009F440C0883E23E0920709F444C0883C3B
:1001A000910549F43FEF43EC89E0315040408040F5
:1001B000E1F700C0000008958CE091E00E94E701A3
:1001C000811114C08CE091E00E94F801882349F06D
:1001D00061E071E08CE091E00E94C00188EE93E064
:1001E000B8CF1092000188E893E1B3CF84EF91E09B
:1001F000B0CF4FEF29E638E1415020403040E1F7E1
:1002000000C000004FEF23ED30E34150204030406C
:10021000E1F7B8CF9FEF29E638E191502040304018
:10022000E1F700C000004FEF83ED90E341508040C4
:100230009040E1F7BECF8F92AF92CF92EF92FF92B4
:100240000F931F93CF93DF93CDB7DEB7FC0171837C
:100250006083538342833583248317830683F18627
:10026000E086C286A38684868C8585878D85868771
:100270008E8587878F85808B8889818BDF91CF9151
:100280001F910F91FF90EF90CF90AF908F900895B6
:10029000EF92FF920F931F93CF93DF93EC01E881CE
:1002A000F98180819A8501E010E0A80101C0440F26
:1002B0009A95EAF7842B8083EE80FF809B01770F6D
:1002C000440B550B83E0220F331F441F551F8A95A3
:1002D000D1F760E074E284EF90E00E944002215088
:1002E000F7012083EC81FD8120818C85A80102C06B
:1002F000440F551F8A95E2F7CA019B85A80101C0EA
:10030000440F9A95EAF7842B822B8083EA81FB8144
:1003100020818D85A80102C0440F551F8A95E2F700
:10032000CA019E85A80101C0440F9A95EAF7842B63
:10033000822B9F8501C0000F9A95EAF7082B008356
:10034000DF91CF911F910F91FF90EF900895DC0105
:100350001896ED91FC91808108950F931F93CF9390
:100360008C01C62F6A3019F46DE00E94AD01D801EE
:100370001896ED91FC91C083CF911F910F91089534
:10038000EF92FF920F931F93CF93DF937C018B012A
:10039000D0E0C0E0F80101900020E9F73197E01BC0
:1003A000F10BCE17DF0748F4F801EC0FFD1F608159
:1003B000C7010E94AD012196EDCF6AE0C701DF9130
:1003C000CF911F910F91FF90EF900C94AD01DC0144
:1003D000ED91FC911197208130E050968C91F901BC
:1003E00002C0F595E7958A95E2F7CF0181700895EF
:1003F000DC01ED91FC911197208130E051968C91B8
:10040000F90102C0F595E7958A95E2F7CF01817071
:1004100008950E9485000E948E00FDCF8F92AF92BA
:10042000CF92EF92FF920F931F9385E08F9387E017
:100430008F938F9383E08F9384E08F9382E0882E55
:10044000AA24A394CC24C39496ECE92EF12C04ECBA
:1004500010E022EC30E041EC50E060EC70E08CE029
:1004600091E00E941B010F900F900F900F900F9042
:100470001F910F91FF90EF90CF90AF908F900895C4
:10048000052E97FB1EF400940E94570257FD07D0DB
:100490000E945F0207FC03D04EF40C945702509563
:1004A0004095309521953F4F4F4F5F4F0895909560
:1004B0008095709561957F4F8F4F9F4F0895A1E272
:1004C0001A2EAA1BBB1BFD010DC0AA1FBB1FEE1FCE
:1004D000FF1FA217B307E407F50720F0A21BB30B19
:1004E000E40BF50B661F771F881F991F1A9469F795
:1004F00060957095809590959B01AC01BD01CF01F1
:100500000895EE0FFF1F0590F491E02D0994F894E3
:02051000FFCF1B
:0C0512000169276D2068657265210A00F0
:00000001FF
