:100000000C945B000C9483000C9483000C9483008C
:100010000C9483000C9483000C9483000C94830054
:100020000C9483000C9483000C9483000C94830044
:100030000C9483000C9483000C9483000C94830034
:100040000C9483000C9483000C9483000C94830024
:100050000C9483000C9483000C9483000C94830014
:100060000C9483000C9483000C9483000C94830004
:100070000C9483000C9483000C9483000C948300F4
:100080000C9483000C9483000C9483000C948300E4
:100090000C9483000C9483000C9483000C948300D4
:1000A0000C9483000C9483000C9483000C948300C4
:1000B0000C948300270211241FBECFEFD8E0DEBFCF
:1000C000CDBF11E0A0E0B1E0E4E4F5E002C00590AE
:1000D0000D92AC30B107D9F721E0ACE0B1E001C03E
:1000E0001D92AE31B207E1F710E0CBE5D0E004C0DD
:1000F0002197FE010E949A02CA35D107C9F70E94D2
:1001000022020C94A0020C94000060E875E28CE0DE
:1001100091E00E9445015C9A5C98089581E080938B
:1001200000018CE091E00E940002882331F08CE015
:1001300091E00E94110281116EC08CE091E00E945A
:100140000002811114C08CE091E00E94110288230A
:1001500049F061E071E08CE091E00E94D90188EE05
:1001600093E007C01092000188E893E102C084EF99
:1001700091E020910001222309F459C05C9A843F48
:1001800021E0920779F0883E33E09307A1F0883CA4
:100190009105D1F44FEF23EC39E04150204030403D
:1001A000E1F710C04FEF29E638E1415020403040E0
:1001B000E1F700C000004FEF23ED30E34150204055
:1001C0003040E1F700C000005C98843F41E09407B4
:1001D00079F0883E23E09207A1F0883C910539F53B
:1001E0003FEF43EC89E0315040408040E1F710C0E0
:1001F0009FEF29E638E1915020403040E1F700C000
:1002000000004FEF83ED90E3415080409040E1F7D4
:1002100000C0000008958CE091E00E94BE01682FAC
:100220008CE091E00E94C50188EC90E0A2CF089597
:100230008F92AF92CF92EF92FF920F931F93CF9333
:10024000DF93CDB7DEB7FC017183608353834283B4
:100250003583248317830683F186E086C286A386CE
:1002600084868C8585878D8586878E8587878F8513
:10027000808B8889818BDF91CF911F910F91FF90A7
:10028000EF90CF90AF908F900895EF92FF920F93E1
:100290001F93CF93DF938C01DC01ED91FC911197BB
:1002A0004081C1E0D0E0CE011A960C901A9702C0AE
:1002B000880F991F0A94E2F7842B80831696ED909D
:1002C000FC901797CB01770FAA0BBB0B9C01AD01DC
:1002D00083E0220F331F441F551F8A95D1F760E03A
:1002E00074E284EF90E00E9459022150F7012083CC
:1002F000D8011496ED91FC9115979081AE011C9652
:100300000C901C9702C0440F551F0A94E2F79E01FF
:100310001B960C901B9702C0220F331F0A94E2F722
:10032000842F822B892B80831296ED91FC91139759
:100330009081AE011D960C901D9702C0440F551F71
:100340000A94E2F79E011E960C901E9702C0220F9F
:10035000331F0A94E2F7842F822B892B1F960C906F
:1003600002C0CC0FDD1F0A94E2F7C82BC083DF91D7
:10037000CF911F910F91FF90EF900895DC01189697
:10038000ED91FC911997808108950F931F93CF935E
:100390008C01C62F6A3019F46DE00E94C501D801A6
:1003A0001896ED91FC911997C083CF911F910F91F1
:1003B0000895EF92FF920F931F93CF93DF937C01E9
:1003C000EB018B01FE0101900020E9F73197EC1B56
:1003D000FD0BC8018C1B9D0B8E179F0738F4F8018D
:1003E00061918F01C7010E94C501ECCF6AE0C7018E
:1003F000DF91CF911F910F91FF90EF900C94C50169
:10040000DC01ED91FC911197208130E0F9015096CB
:100410000C9002C0F595E7950A94E2F7CF01817040
:100420000895DC01ED91FC911197208130E0F901F4
:1004300051960C9002C0F595E7950A94E2F7CF012A
:10044000817008950E9485000E948E00FDCF8F92DA
:10045000AF92CF92EF92FF920F931F9385E08F930D
:1004600087E08F938F9383E08F9384E08F9382E074
:10047000882EAA24A394CC24C39496ECE92EF12CC4
:1004800004EC10E022EC30E041EC50E060EC70E075
:100490008CE091E00E9418010F900F900F900F9048
:1004A0000F901F910F91FF90EF90CF90AF908F9092
:1004B0000895052E97FB1EF400940E94700257FDCC
:1004C00007D00E94780207FC03D04EF40C9470020F
:1004D00050954095309521953F4F4F4F5F4F089570
:1004E00090958095709561957F4F8F4F9F4F0895A0
:1004F000A1E21A2EAA1BBB1BFD010DC0AA1FBB1F28
:10050000EE1FFF1FA217B307E407F50720F0A21B99
:10051000B30BE40BF50B661F771F881F991F1A9406
:1005200069F760957095809590959B01AC01BD0130
:10053000CF010895EE0FFF1F0590F491E02D09946F
:04054000F894FFCF5D
:0C0544000169276D2068657265210A00BE
:00000001FF
